{
  "_format": "hh-sol-artifact-1",
  "contractName": "StachesNFT",
  "sourceName": "contracts/Staches.sol",
  "abi": [
    {
      "inputs": [
        {
          "internalType": "string",
          "name": "baseURI",
          "type": "string"
        }
      ],
      "stateMutability": "nonpayable",
      "type": "constructor"
    },
    {
      "anonymous": false,
      "inputs": [
        {
          "indexed": true,
          "internalType": "address",
          "name": "owner",
          "type": "address"
        },
        {
          "indexed": true,
          "internalType": "address",
          "name": "approved",
          "type": "address"
        },
        {
          "indexed": true,
          "internalType": "uint256",
          "name": "tokenId",
          "type": "uint256"
        }
      ],
      "name": "Approval",
      "type": "event"
    },
    {
      "anonymous": false,
      "inputs": [
        {
          "indexed": true,
          "internalType": "address",
          "name": "owner",
          "type": "address"
        },
        {
          "indexed": true,
          "internalType": "address",
          "name": "operator",
          "type": "address"
        },
        {
          "indexed": false,
          "internalType": "bool",
          "name": "approved",
          "type": "bool"
        }
      ],
      "name": "ApprovalForAll",
      "type": "event"
    },
    {
      "anonymous": false,
      "inputs": [
        {
          "indexed": true,
          "internalType": "address",
          "name": "previousOwner",
          "type": "address"
        },
        {
          "indexed": true,
          "internalType": "address",
          "name": "newOwner",
          "type": "address"
        }
      ],
      "name": "OwnershipTransferred",
      "type": "event"
    },
    {
      "anonymous": false,
      "inputs": [
        {
          "indexed": false,
          "internalType": "bool",
          "name": "isActive",
          "type": "bool"
        }
      ],
      "name": "SaleActivation",
      "type": "event"
    },
    {
      "anonymous": false,
      "inputs": [
        {
          "indexed": true,
          "internalType": "address",
          "name": "from",
          "type": "address"
        },
        {
          "indexed": true,
          "internalType": "address",
          "name": "to",
          "type": "address"
        },
        {
          "indexed": true,
          "internalType": "uint256",
          "name": "tokenId",
          "type": "uint256"
        }
      ],
      "name": "Transfer",
      "type": "event"
    },
    {
      "inputs": [
        {
          "internalType": "address",
          "name": "to",
          "type": "address"
        },
        {
          "internalType": "uint256",
          "name": "tokenId",
          "type": "uint256"
        }
      ],
      "name": "approve",
      "outputs": [],
      "stateMutability": "nonpayable",
      "type": "function"
    },
    {
      "inputs": [
        {
          "internalType": "address",
          "name": "owner",
          "type": "address"
        }
      ],
      "name": "balanceOf",
      "outputs": [
        {
          "internalType": "uint256",
          "name": "",
          "type": "uint256"
        }
      ],
      "stateMutability": "view",
      "type": "function"
    },
    {
      "inputs": [],
      "name": "baseTokenURI",
      "outputs": [
        {
          "internalType": "string",
          "name": "",
          "type": "string"
        }
      ],
      "stateMutability": "view",
      "type": "function"
    },
    {
      "inputs": [
        {
          "internalType": "uint256",
          "name": "tokenId",
          "type": "uint256"
        }
      ],
      "name": "getApproved",
      "outputs": [
        {
          "internalType": "address",
          "name": "",
          "type": "address"
        }
      ],
      "stateMutability": "view",
      "type": "function"
    },
    {
      "inputs": [],
      "name": "getContractOwner",
      "outputs": [
        {
          "internalType": "address",
          "name": "",
          "type": "address"
        }
      ],
      "stateMutability": "view",
      "type": "function"
    },
    {
      "inputs": [],
      "name": "getMaximumAllowedTokens",
      "outputs": [
        {
          "internalType": "uint256",
          "name": "",
          "type": "uint256"
        }
      ],
      "stateMutability": "view",
      "type": "function"
    },
    {
      "inputs": [],
      "name": "getPrice",
      "outputs": [
        {
          "internalType": "uint256",
          "name": "",
          "type": "uint256"
        }
      ],
      "stateMutability": "view",
      "type": "function"
    },
    {
      "inputs": [],
      "name": "getTotalSupply",
      "outputs": [
        {
          "internalType": "uint256",
          "name": "",
          "type": "uint256"
        }
      ],
      "stateMutability": "view",
      "type": "function"
    },
    {
      "inputs": [],
      "name": "isActive",
      "outputs": [
        {
          "internalType": "bool",
          "name": "",
          "type": "bool"
        }
      ],
      "stateMutability": "view",
      "type": "function"
    },
    {
      "inputs": [
        {
          "internalType": "address",
          "name": "owner",
          "type": "address"
        },
        {
          "internalType": "address",
          "name": "operator",
          "type": "address"
        }
      ],
      "name": "isApprovedForAll",
      "outputs": [
        {
          "internalType": "bool",
          "name": "",
          "type": "bool"
        }
      ],
      "stateMutability": "view",
      "type": "function"
    },
    {
      "inputs": [],
      "name": "maximumAllowedTokensPerPurchase",
      "outputs": [
        {
          "internalType": "uint256",
          "name": "",
          "type": "uint256"
        }
      ],
      "stateMutability": "view",
      "type": "function"
    },
    {
      "inputs": [],
      "name": "maximumMintSupply",
      "outputs": [
        {
          "internalType": "uint256",
          "name": "",
          "type": "uint256"
        }
      ],
      "stateMutability": "view",
      "type": "function"
    },
    {
      "inputs": [
        {
          "internalType": "uint256",
          "name": "_count",
          "type": "uint256"
        }
      ],
      "name": "mint",
      "outputs": [],
      "stateMutability": "payable",
      "type": "function"
    },
    {
      "inputs": [],
      "name": "mintPrice",
      "outputs": [
        {
          "internalType": "uint256",
          "name": "",
          "type": "uint256"
        }
      ],
      "stateMutability": "view",
      "type": "function"
    },
    {
      "inputs": [],
      "name": "name",
      "outputs": [
        {
          "internalType": "string",
          "name": "",
          "type": "string"
        }
      ],
      "stateMutability": "view",
      "type": "function"
    },
    {
      "inputs": [],
      "name": "owner",
      "outputs": [
        {
          "internalType": "address",
          "name": "",
          "type": "address"
        }
      ],
      "stateMutability": "view",
      "type": "function"
    },
    {
      "inputs": [
        {
          "internalType": "uint256",
          "name": "tokenId",
          "type": "uint256"
        }
      ],
      "name": "ownerOf",
      "outputs": [
        {
          "internalType": "address",
          "name": "",
          "type": "address"
        }
      ],
      "stateMutability": "view",
      "type": "function"
    },
    {
      "inputs": [],
      "name": "renounceOwnership",
      "outputs": [],
      "stateMutability": "nonpayable",
      "type": "function"
    },
    {
      "inputs": [
        {
          "internalType": "address",
          "name": "from",
          "type": "address"
        },
        {
          "internalType": "address",
          "name": "to",
          "type": "address"
        },
        {
          "internalType": "uint256",
          "name": "tokenId",
          "type": "uint256"
        }
      ],
      "name": "safeTransferFrom",
      "outputs": [],
      "stateMutability": "nonpayable",
      "type": "function"
    },
    {
      "inputs": [
        {
          "internalType": "address",
          "name": "from",
          "type": "address"
        },
        {
          "internalType": "address",
          "name": "to",
          "type": "address"
        },
        {
          "internalType": "uint256",
          "name": "tokenId",
          "type": "uint256"
        },
        {
          "internalType": "bytes",
          "name": "_data",
          "type": "bytes"
        }
      ],
      "name": "safeTransferFrom",
      "outputs": [],
      "stateMutability": "nonpayable",
      "type": "function"
    },
    {
      "inputs": [
        {
          "internalType": "bool",
          "name": "val",
          "type": "bool"
        }
      ],
      "name": "setActive",
      "outputs": [],
      "stateMutability": "nonpayable",
      "type": "function"
    },
    {
      "inputs": [
        {
          "internalType": "address",
          "name": "operator",
          "type": "address"
        },
        {
          "internalType": "bool",
          "name": "approved",
          "type": "bool"
        }
      ],
      "name": "setApprovalForAll",
      "outputs": [],
      "stateMutability": "nonpayable",
      "type": "function"
    },
    {
      "inputs": [
        {
          "internalType": "string",
          "name": "baseURI",
          "type": "string"
        }
      ],
      "name": "setBaseURI",
      "outputs": [],
      "stateMutability": "nonpayable",
      "type": "function"
    },
    {
      "inputs": [
        {
          "internalType": "address",
          "name": "addr",
          "type": "address"
        }
      ],
      "name": "setDevAddress",
      "outputs": [],
      "stateMutability": "nonpayable",
      "type": "function"
    },
    {
      "inputs": [
        {
          "internalType": "uint256",
          "name": "fee",
          "type": "uint256"
        }
      ],
      "name": "setDevFee",
      "outputs": [],
      "stateMutability": "nonpayable",
      "type": "function"
    },
    {
      "inputs": [
        {
          "internalType": "uint256",
          "name": "maxMintSupply",
          "type": "uint256"
        }
      ],
      "name": "setMaxMintSupply",
      "outputs": [],
      "stateMutability": "nonpayable",
      "type": "function"
    },
    {
      "inputs": [
        {
          "internalType": "uint256",
          "name": "_count",
          "type": "uint256"
        }
      ],
      "name": "setMaximumAllowedTokens",
      "outputs": [],
      "stateMutability": "nonpayable",
      "type": "function"
    },
    {
      "inputs": [
        {
          "internalType": "uint256",
          "name": "_price",
          "type": "uint256"
        }
      ],
      "name": "setPrice",
      "outputs": [],
      "stateMutability": "nonpayable",
      "type": "function"
    },
    {
      "inputs": [
        {
          "internalType": "bytes4",
          "name": "interfaceId",
          "type": "bytes4"
        }
      ],
      "name": "supportsInterface",
      "outputs": [
        {
          "internalType": "bool",
          "name": "",
          "type": "bool"
        }
      ],
      "stateMutability": "view",
      "type": "function"
    },
    {
      "inputs": [],
      "name": "symbol",
      "outputs": [
        {
          "internalType": "string",
          "name": "",
          "type": "string"
        }
      ],
      "stateMutability": "view",
      "type": "function"
    },
    {
      "inputs": [
        {
          "internalType": "uint256",
          "name": "index",
          "type": "uint256"
        }
      ],
      "name": "tokenByIndex",
      "outputs": [
        {
          "internalType": "uint256",
          "name": "",
          "type": "uint256"
        }
      ],
      "stateMutability": "view",
      "type": "function"
    },
    {
      "inputs": [
        {
          "internalType": "address",
          "name": "owner",
          "type": "address"
        },
        {
          "internalType": "uint256",
          "name": "index",
          "type": "uint256"
        }
      ],
      "name": "tokenOfOwnerByIndex",
      "outputs": [
        {
          "internalType": "uint256",
          "name": "",
          "type": "uint256"
        }
      ],
      "stateMutability": "view",
      "type": "function"
    },
    {
      "inputs": [
        {
          "internalType": "uint256",
          "name": "_tokenId",
          "type": "uint256"
        }
      ],
      "name": "tokenURI",
      "outputs": [
        {
          "internalType": "string",
          "name": "",
          "type": "string"
        }
      ],
      "stateMutability": "view",
      "type": "function"
    },
    {
      "inputs": [],
      "name": "totalSupply",
      "outputs": [
        {
          "internalType": "uint256",
          "name": "",
          "type": "uint256"
        }
      ],
      "stateMutability": "view",
      "type": "function"
    },
    {
      "inputs": [
        {
          "internalType": "address",
          "name": "from",
          "type": "address"
        },
        {
          "internalType": "address",
          "name": "to",
          "type": "address"
        },
        {
          "internalType": "uint256",
          "name": "tokenId",
          "type": "uint256"
        }
      ],
      "name": "transferFrom",
      "outputs": [],
      "stateMutability": "nonpayable",
      "type": "function"
    },
    {
      "inputs": [
        {
          "internalType": "address",
          "name": "newOwner",
          "type": "address"
        }
      ],
      "name": "transferOwnership",
      "outputs": [],
      "stateMutability": "nonpayable",
      "type": "function"
    },
    {
      "inputs": [
        {
          "internalType": "address",
          "name": "_owner",
          "type": "address"
        }
      ],
      "name": "walletOfOwner",
      "outputs": [
        {
          "internalType": "uint256[]",
          "name": "",
          "type": "uint256[]"
        }
      ],
      "stateMutability": "view",
      "type": "function"
    },
    {
      "inputs": [],
      "name": "withdraw",
      "outputs": [],
      "stateMutability": "nonpayable",
      "type": "function"
    }
  ],
  "bytecode": "0x608060405267016345785d8a0000600b55600d805460ff1916905561012c600e55600a600f55601080546001600160a01b0319167397cbb7061ae346600c393dbe3a361772aa2d1e4d17905560056011553480156200005d57600080fd5b5060405162002b1038038062002b10833981016040819052620000809162000267565b604080518082018252600a81526914dd1858da195cd3919560b21b6020808301918252835180850190945260058452640a6a88286960db1b908401528151919291620000cf91600091620001ab565b508051620000e5906001906020840190620001ab565b50505062000102620000fc6200011460201b60201c565b62000118565b6200010d816200016a565b5062000380565b3390565b600a80546001600160a01b038381166001600160a01b0319831681179093556040519116919082907f8be0079c531659141344cd1fd0a4f28419497f9722a3daafe3b4186f6b6457e090600090a35050565b336200017e600a546001600160a01b031690565b6001600160a01b0316146200019257600080fd5b8051620001a790600c906020840190620001ab565b5050565b828054620001b99062000343565b90600052602060002090601f016020900481019282620001dd576000855562000228565b82601f10620001f857805160ff191683800117855562000228565b8280016001018555821562000228579182015b82811115620002285782518255916020019190600101906200020b565b50620002369291506200023a565b5090565b5b808211156200023657600081556001016200023b565b634e487b7160e01b600052604160045260246000fd5b600060208083850312156200027b57600080fd5b82516001600160401b03808211156200029357600080fd5b818501915085601f830112620002a857600080fd5b815181811115620002bd57620002bd62000251565b604051601f8201601f19908116603f01168101908382118183101715620002e857620002e862000251565b8160405282815288868487010111156200030157600080fd5b600093505b8284101562000325578484018601518185018701529285019262000306565b82841115620003375760008684830101525b98975050505050505050565b600181811c908216806200035857607f821691505b602082108114156200037a57634e487b7160e01b600052602260045260246000fd5b50919050565b61278080620003906000396000f3fe6080604052600436106102855760003560e01c806370a0823111610153578063a22cb465116100cb578063c87b56dd1161007f578063d547cfb711610064578063d547cfb7146106a7578063e985e9c5146106bc578063f2fde38b1461070557600080fd5b8063c87b56dd14610667578063d0d41fe11461068757600080fd5b8063ad06d758116100b0578063ad06d7581461061d578063b88d4fde14610632578063c4e41b221461065257600080fd5b8063a22cb465146105dd578063acec338a146105fd57600080fd5b806391b7f5ed1161012257806398d5fdca1161010757806398d5fdca1461059f5780639a3bf728146105b4578063a0712d68146105ca57600080fd5b806391b7f5ed1461056a57806395d89b411461058a57600080fd5b806370a08231146104f7578063715018a6146105175780637389fbb71461052c5780638da5cb5b1461054c57600080fd5b80633ccfd60b116102015780634dfea627116101b557806355f804b31161019a57806355f804b3146104a15780636352211e146104c15780636817c76c146104e157600080fd5b80634dfea627146104615780634f6ccce71461048157600080fd5b8063438b6300116101e6578063438b630014610409578063442890d5146104365780634d0550de1461044b57600080fd5b80633ccfd60b146103d457806342842e0e146103e957600080fd5b806318160ddd1161025857806322f3e2d41161023d57806322f3e2d41461037a57806323b872dd146103945780632f745c59146103b457600080fd5b806318160ddd1461033b5780631c75b6b21461035a57600080fd5b806301ffc9a71461028a57806306fdde03146102bf578063081812fc146102e1578063095ea7b314610319575b600080fd5b34801561029657600080fd5b506102aa6102a5366004612214565b610725565b60405190151581526020015b60405180910390f35b3480156102cb57600080fd5b506102d4610769565b6040516102b69190612290565b3480156102ed57600080fd5b506103016102fc3660046122a3565b6107fb565b6040516001600160a01b0390911681526020016102b6565b34801561032557600080fd5b506103396103343660046122d8565b6108a6565b005b34801561034757600080fd5b506008545b6040519081526020016102b6565b34801561036657600080fd5b506103396103753660046122a3565b6109d8565b34801561038657600080fd5b50600d546102aa9060ff1681565b3480156103a057600080fd5b506103396103af366004612302565b610a03565b3480156103c057600080fd5b5061034c6103cf3660046122d8565b610a8a565b3480156103e057600080fd5b50610339610b32565b3480156103f557600080fd5b50610339610404366004612302565b610ba7565b34801561041557600080fd5b5061042961042436600461233e565b610bc2565b6040516102b69190612359565b34801561044257600080fd5b50610301610c64565b34801561045757600080fd5b5061034c600e5481565b34801561046d57600080fd5b5061033961047c3660046122a3565b610c7d565b34801561048d57600080fd5b5061034c61049c3660046122a3565b610ca8565b3480156104ad57600080fd5b506103396104bc366004612429565b610d4c565b3480156104cd57600080fd5b506103016104dc3660046122a3565b610d85565b3480156104ed57600080fd5b5061034c600b5481565b34801561050357600080fd5b5061034c61051236600461233e565b610e10565b34801561052357600080fd5b50610339610eaa565b34801561053857600080fd5b506103396105473660046122a3565b610f10565b34801561055857600080fd5b50600a546001600160a01b0316610301565b34801561057657600080fd5b506103396105853660046122a3565b610f3b565b34801561059657600080fd5b506102d4610f66565b3480156105ab57600080fd5b50600b5461034c565b3480156105c057600080fd5b5061034c600f5481565b6103396105d83660046122a3565b610f75565b3480156105e957600080fd5b506103396105f8366004612482565b611225565b34801561060957600080fd5b506103396106183660046124b5565b6112ea565b34801561062957600080fd5b5061034c611357565b34801561063e57600080fd5b5061033961064d3660046124d0565b611386565b34801561065e57600080fd5b5061034c611414565b34801561067357600080fd5b506102d46106823660046122a3565b61141f565b34801561069357600080fd5b506103396106a236600461233e565b611459565b3480156106b357600080fd5b506102d46114ae565b3480156106c857600080fd5b506102aa6106d736600461254c565b6001600160a01b03918216600090815260056020908152604080832093909416825291909152205460ff1690565b34801561071157600080fd5b5061033961072036600461233e565b6114bd565b60006001600160e01b031982167f780e9d6300000000000000000000000000000000000000000000000000000000148061076357506107638261159f565b92915050565b60606000805461077890612576565b80601f01602080910402602001604051908101604052809291908181526020018280546107a490612576565b80156107f15780601f106107c6576101008083540402835291602001916107f1565b820191906000526020600020905b8154815290600101906020018083116107d457829003601f168201915b5050505050905090565b6000818152600260205260408120546001600160a01b031661088a5760405162461bcd60e51b815260206004820152602c60248201527f4552433732313a20617070726f76656420717565727920666f72206e6f6e657860448201527f697374656e7420746f6b656e000000000000000000000000000000000000000060648201526084015b60405180910390fd5b506000908152600460205260409020546001600160a01b031690565b60006108b182610d85565b9050806001600160a01b0316836001600160a01b0316141561093b5760405162461bcd60e51b815260206004820152602160248201527f4552433732313a20617070726f76616c20746f2063757272656e74206f776e6560448201527f72000000000000000000000000000000000000000000000000000000000000006064820152608401610881565b336001600160a01b0382161480610957575061095781336106d7565b6109c95760405162461bcd60e51b815260206004820152603860248201527f4552433732313a20617070726f76652063616c6c6572206973206e6f74206f7760448201527f6e6572206e6f7220617070726f76656420666f7220616c6c00000000000000006064820152608401610881565b6109d3838361163a565b505050565b336109eb600a546001600160a01b031690565b6001600160a01b0316146109fe57600080fd5b601155565b610a0d33826116b5565b610a7f5760405162461bcd60e51b815260206004820152603160248201527f4552433732313a207472616e736665722063616c6c6572206973206e6f74206f60448201527f776e6572206e6f7220617070726f7665640000000000000000000000000000006064820152608401610881565b6109d38383836117bd565b6000610a9583610e10565b8210610b095760405162461bcd60e51b815260206004820152602b60248201527f455243373231456e756d657261626c653a206f776e657220696e646578206f7560448201527f74206f6620626f756e64730000000000000000000000000000000000000000006064820152608401610881565b506001600160a01b03919091166000908152600660209081526040808320938352929052205490565b33610b45600a546001600160a01b031690565b6001600160a01b031614610b5857600080fd5b47610b6b600a546001600160a01b031690565b6001600160a01b03166108fc829081150290604051600060405180830381858888f19350505050158015610ba3573d6000803e3d6000fd5b5050565b6109d383838360405180602001604052806000815250611386565b60606000610bcf83610e10565b905060008167ffffffffffffffff811115610bec57610bec61239d565b604051908082528060200260200182016040528015610c15578160200160208202803683370190505b50905060005b82811015610c5c57610c2d8582610a8a565b828281518110610c3f57610c3f6125b1565b602090810291909101015280610c54816125dd565b915050610c1b565b509392505050565b6000610c78600a546001600160a01b031690565b905090565b33610c90600a546001600160a01b031690565b6001600160a01b031614610ca357600080fd5b600f55565b6000610cb360085490565b8210610d275760405162461bcd60e51b815260206004820152602c60248201527f455243373231456e756d657261626c653a20676c6f62616c20696e646578206f60448201527f7574206f6620626f756e647300000000000000000000000000000000000000006064820152608401610881565b60088281548110610d3a57610d3a6125b1565b90600052602060002001549050919050565b33610d5f600a546001600160a01b031690565b6001600160a01b031614610d7257600080fd5b8051610ba390600c906020840190612165565b6000818152600260205260408120546001600160a01b0316806107635760405162461bcd60e51b815260206004820152602960248201527f4552433732313a206f776e657220717565727920666f72206e6f6e657869737460448201527f656e7420746f6b656e00000000000000000000000000000000000000000000006064820152608401610881565b60006001600160a01b038216610e8e5760405162461bcd60e51b815260206004820152602a60248201527f4552433732313a2062616c616e636520717565727920666f7220746865207a6560448201527f726f2061646472657373000000000000000000000000000000000000000000006064820152608401610881565b506001600160a01b031660009081526003602052604090205490565b600a546001600160a01b03163314610f045760405162461bcd60e51b815260206004820181905260248201527f4f776e61626c653a2063616c6c6572206973206e6f7420746865206f776e65726044820152606401610881565b610f0e60006119a2565b565b33610f23600a546001600160a01b031690565b6001600160a01b031614610f3657600080fd5b600e55565b33610f4e600a546001600160a01b031690565b6001600160a01b031614610f6157600080fd5b600b55565b60606001805461077890612576565b600e546008541115610fc95760405162461bcd60e51b815260206004820152600f60248201527f53616c652068617320656e6465642e00000000000000000000000000000000006044820152606401610881565b600a546001600160a01b0316331461102d57600d5460ff1661102d5760405162461bcd60e51b815260206004820152601d60248201527f53616c65206973206e6f74206163746976652063757272656e746c792e0000006044820152606401610881565b600e548161103a60085490565b61104491906125f8565b11156110925760405162461bcd60e51b815260206004820152601660248201527f546f74616c20737570706c792065786365656465642e000000000000000000006044820152606401610881565b600e5460085411156110e65760405162461bcd60e51b815260206004820152601360248201527f546f74616c20737570706c79207370656e742e000000000000000000000000006044820152606401610881565b600f548111156111385760405162461bcd60e51b815260206004820152601e60248201527f45786365656473206d6178696d756d20616c6c6f77656420746f6b656e7300006044820152606401610881565b80600b546111469190612610565b3410156111955760405162461bcd60e51b815260206004820152601b60248201527f496e7375666669656e742045544820616d6f756e742073656e742e00000000006044820152606401610881565b60005b818110156111cf576111bd336111ad60085490565b6111b89060016125f8565b611a01565b806111c7816125dd565b915050611198565b506010546011546001600160a01b03909116906108fc906064906111f39034612610565b6111fd9190612645565b6040518115909202916000818181858888f19350505050158015610ba3573d6000803e3d6000fd5b6001600160a01b03821633141561127e5760405162461bcd60e51b815260206004820152601960248201527f4552433732313a20617070726f766520746f2063616c6c6572000000000000006044820152606401610881565b3360008181526005602090815260408083206001600160a01b03871680855290835292819020805460ff191686151590811790915590519081529192917f17307eab39ab6107e8899845ad3d59bd9653f200f220920489ca2b5937696c31910160405180910390a35050565b336112fd600a546001600160a01b031690565b6001600160a01b03161461131057600080fd5b600d805460ff19168215159081179091556040519081527f58655b75d3df612fe99ead00dbf0812d415d35078fe06217a94c0818bb13967f9060200160405180910390a150565b60003361136c600a546001600160a01b031690565b6001600160a01b03161461137f57600080fd5b50600f5490565b61139033836116b5565b6114025760405162461bcd60e51b815260206004820152603160248201527f4552433732313a207472616e736665722063616c6c6572206973206e6f74206f60448201527f776e6572206e6f7220617070726f7665640000000000000000000000000000006064820152608401610881565b61140e84848484611a1b565b50505050565b6000610c7860085490565b60606114296114ae565b61143283611aa4565b604051602001611443929190612659565b6040516020818303038152906040529050919050565b3361146c600a546001600160a01b031690565b6001600160a01b03161461147f57600080fd5b6010805473ffffffffffffffffffffffffffffffffffffffff19166001600160a01b0392909216919091179055565b6060600c805461077890612576565b600a546001600160a01b031633146115175760405162461bcd60e51b815260206004820181905260248201527f4f776e61626c653a2063616c6c6572206973206e6f7420746865206f776e65726044820152606401610881565b6001600160a01b0381166115935760405162461bcd60e51b815260206004820152602660248201527f4f776e61626c653a206e6577206f776e657220697320746865207a65726f206160448201527f64647265737300000000000000000000000000000000000000000000000000006064820152608401610881565b61159c816119a2565b50565b60006001600160e01b031982167f80ac58cd00000000000000000000000000000000000000000000000000000000148061160257506001600160e01b031982167f5b5e139f00000000000000000000000000000000000000000000000000000000145b8061076357507f01ffc9a7000000000000000000000000000000000000000000000000000000006001600160e01b0319831614610763565b6000818152600460205260409020805473ffffffffffffffffffffffffffffffffffffffff19166001600160a01b038416908117909155819061167c82610d85565b6001600160a01b03167f8c5be1e5ebec7d5bd14f71427d1e84f3dd0314c0f7b2291e5b200ac8c7c3b92560405160405180910390a45050565b6000818152600260205260408120546001600160a01b031661173f5760405162461bcd60e51b815260206004820152602c60248201527f4552433732313a206f70657261746f7220717565727920666f72206e6f6e657860448201527f697374656e7420746f6b656e00000000000000000000000000000000000000006064820152608401610881565b600061174a83610d85565b9050806001600160a01b0316846001600160a01b031614806117855750836001600160a01b031661177a846107fb565b6001600160a01b0316145b806117b557506001600160a01b0380821660009081526005602090815260408083209388168352929052205460ff165b949350505050565b826001600160a01b03166117d082610d85565b6001600160a01b03161461184c5760405162461bcd60e51b815260206004820152602960248201527f4552433732313a207472616e73666572206f6620746f6b656e2074686174206960448201527f73206e6f74206f776e00000000000000000000000000000000000000000000006064820152608401610881565b6001600160a01b0382166118c75760405162461bcd60e51b8152602060048201526024808201527f4552433732313a207472616e7366657220746f20746865207a65726f2061646460448201527f72657373000000000000000000000000000000000000000000000000000000006064820152608401610881565b6118d2838383611bd6565b6118dd60008261163a565b6001600160a01b03831660009081526003602052604081208054600192906119069084906126b0565b90915550506001600160a01b03821660009081526003602052604081208054600192906119349084906125f8565b9091555050600081815260026020526040808220805473ffffffffffffffffffffffffffffffffffffffff19166001600160a01b0386811691821790925591518493918716917fddf252ad1be2c89b69c2b068fc378daa952ba7f163c4a11628f55a4df523b3ef91a4505050565b600a80546001600160a01b0383811673ffffffffffffffffffffffffffffffffffffffff19831681179093556040519116919082907f8be0079c531659141344cd1fd0a4f28419497f9722a3daafe3b4186f6b6457e090600090a35050565b610ba3828260405180602001604052806000815250611c8e565b611a268484846117bd565b611a3284848484611d17565b61140e5760405162461bcd60e51b815260206004820152603260248201527f4552433732313a207472616e7366657220746f206e6f6e20455243373231526560448201527f63656976657220696d706c656d656e74657200000000000000000000000000006064820152608401610881565b606081611ae457505060408051808201909152600181527f3000000000000000000000000000000000000000000000000000000000000000602082015290565b8160005b8115611b0e5780611af8816125dd565b9150611b079050600a83612645565b9150611ae8565b60008167ffffffffffffffff811115611b2957611b2961239d565b6040519080825280601f01601f191660200182016040528015611b53576020820181803683370190505b5090505b84156117b557611b686001836126b0565b9150611b75600a866126c7565b611b809060306125f8565b60f81b818381518110611b9557611b956125b1565b60200101907effffffffffffffffffffffffffffffffffffffffffffffffffffffffffffff1916908160001a905350611bcf600a86612645565b9450611b57565b6001600160a01b038316611c3157611c2c81600880546000838152600960205260408120829055600182018355919091527ff3f7a9fe364faab93b216da50a3214154f22a0a2b415b23a84c8169e8b636ee30155565b611c54565b816001600160a01b0316836001600160a01b031614611c5457611c548382611e7a565b6001600160a01b038216611c6b576109d381611f17565b826001600160a01b0316826001600160a01b0316146109d3576109d38282611fc6565b611c98838361200a565b611ca56000848484611d17565b6109d35760405162461bcd60e51b815260206004820152603260248201527f4552433732313a207472616e7366657220746f206e6f6e20455243373231526560448201527f63656976657220696d706c656d656e74657200000000000000000000000000006064820152608401610881565b60006001600160a01b0384163b15611e6f57604051630a85bd0160e11b81526001600160a01b0385169063150b7a0290611d5b9033908990889088906004016126db565b602060405180830381600087803b158015611d7557600080fd5b505af1925050508015611da5575060408051601f3d908101601f19168201909252611da291810190612717565b60015b611e55573d808015611dd3576040519150601f19603f3d011682016040523d82523d6000602084013e611dd8565b606091505b508051611e4d5760405162461bcd60e51b815260206004820152603260248201527f4552433732313a207472616e7366657220746f206e6f6e20455243373231526560448201527f63656976657220696d706c656d656e74657200000000000000000000000000006064820152608401610881565b805181602001fd5b6001600160e01b031916630a85bd0160e11b1490506117b5565b506001949350505050565b60006001611e8784610e10565b611e9191906126b0565b600083815260076020526040902054909150808214611ee4576001600160a01b03841660009081526006602090815260408083208584528252808320548484528184208190558352600790915290208190555b5060009182526007602090815260408084208490556001600160a01b039094168352600681528383209183525290812055565b600854600090611f29906001906126b0565b60008381526009602052604081205460088054939450909284908110611f5157611f516125b1565b906000526020600020015490508060088381548110611f7257611f726125b1565b6000918252602080832090910192909255828152600990915260408082208490558582528120556008805480611faa57611faa612734565b6001900381819060005260206000200160009055905550505050565b6000611fd183610e10565b6001600160a01b039093166000908152600660209081526040808320868452825280832085905593825260079052919091209190915550565b6001600160a01b0382166120605760405162461bcd60e51b815260206004820181905260248201527f4552433732313a206d696e7420746f20746865207a65726f20616464726573736044820152606401610881565b6000818152600260205260409020546001600160a01b0316156120c55760405162461bcd60e51b815260206004820152601c60248201527f4552433732313a20746f6b656e20616c7265616479206d696e746564000000006044820152606401610881565b6120d160008383611bd6565b6001600160a01b03821660009081526003602052604081208054600192906120fa9084906125f8565b9091555050600081815260026020526040808220805473ffffffffffffffffffffffffffffffffffffffff19166001600160a01b03861690811790915590518392907fddf252ad1be2c89b69c2b068fc378daa952ba7f163c4a11628f55a4df523b3ef908290a45050565b82805461217190612576565b90600052602060002090601f01602090048101928261219357600085556121d9565b82601f106121ac57805160ff19168380011785556121d9565b828001600101855582156121d9579182015b828111156121d95782518255916020019190600101906121be565b506121e59291506121e9565b5090565b5b808211156121e557600081556001016121ea565b6001600160e01b03198116811461159c57600080fd5b60006020828403121561222657600080fd5b8135612231816121fe565b9392505050565b60005b8381101561225357818101518382015260200161223b565b8381111561140e5750506000910152565b6000815180845261227c816020860160208601612238565b601f01601f19169290920160200192915050565b6020815260006122316020830184612264565b6000602082840312156122b557600080fd5b5035919050565b80356001600160a01b03811681146122d357600080fd5b919050565b600080604083850312156122eb57600080fd5b6122f4836122bc565b946020939093013593505050565b60008060006060848603121561231757600080fd5b612320846122bc565b925061232e602085016122bc565b9150604084013590509250925092565b60006020828403121561235057600080fd5b612231826122bc565b6020808252825182820181905260009190848201906040850190845b8181101561239157835183529284019291840191600101612375565b50909695505050505050565b634e487b7160e01b600052604160045260246000fd5b600067ffffffffffffffff808411156123ce576123ce61239d565b604051601f8501601f19908116603f011681019082821181831017156123f6576123f661239d565b8160405280935085815286868601111561240f57600080fd5b858560208301376000602087830101525050509392505050565b60006020828403121561243b57600080fd5b813567ffffffffffffffff81111561245257600080fd5b8201601f8101841361246357600080fd5b6117b5848235602084016123b3565b803580151581146122d357600080fd5b6000806040838503121561249557600080fd5b61249e836122bc565b91506124ac60208401612472565b90509250929050565b6000602082840312156124c757600080fd5b61223182612472565b600080600080608085870312156124e657600080fd5b6124ef856122bc565b93506124fd602086016122bc565b925060408501359150606085013567ffffffffffffffff81111561252057600080fd5b8501601f8101871361253157600080fd5b612540878235602084016123b3565b91505092959194509250565b6000806040838503121561255f57600080fd5b612568836122bc565b91506124ac602084016122bc565b600181811c9082168061258a57607f821691505b602082108114156125ab57634e487b7160e01b600052602260045260246000fd5b50919050565b634e487b7160e01b600052603260045260246000fd5b634e487b7160e01b600052601160045260246000fd5b60006000198214156125f1576125f16125c7565b5060010190565b6000821982111561260b5761260b6125c7565b500190565b600081600019048311821515161561262a5761262a6125c7565b500290565b634e487b7160e01b600052601260045260246000fd5b6000826126545761265461262f565b500490565b6000835161266b818460208801612238565b83519083019061267f818360208801612238565b7f2e6a736f6e0000000000000000000000000000000000000000000000000000009101908152600501949350505050565b6000828210156126c2576126c26125c7565b500390565b6000826126d6576126d661262f565b500690565b60006001600160a01b0380871683528086166020840152508360408301526080606083015261270d6080830184612264565b9695505050505050565b60006020828403121561272957600080fd5b8151612231816121fe565b634e487b7160e01b600052603160045260246000fdfea264697066735822122051dfb777ca5cc23e8a4af63f6495f3453879ae08577bd0453bc139972499263264736f6c63430008090033",
  "linkReferences": {},
  "deployedLinkReferences": {}
}